{
  "contractName": "PGP",
  "abi": [
    {
      "inputs": [],
      "payable": false,
      "stateMutability": "nonpayable",
      "type": "constructor"
    },
    {
      "constant": true,
      "inputs": [
        {
          "internalType": "string",
          "name": "",
          "type": "string"
        }
      ],
      "name": "keyring",
      "outputs": [
        {
          "internalType": "string",
          "name": "time_stamp",
          "type": "string"
        },
        {
          "internalType": "uint256",
          "name": "keyId",
          "type": "uint256"
        },
        {
          "internalType": "string",
          "name": "publicKey",
          "type": "string"
        },
        {
          "internalType": "uint256",
          "name": "ownerTrust",
          "type": "uint256"
        },
        {
          "internalType": "string",
          "name": "hash",
          "type": "string"
        }
      ],
      "payable": false,
      "stateMutability": "view",
      "type": "function"
    },
    {
      "constant": true,
      "inputs": [
        {
          "internalType": "string",
          "name": "",
          "type": "string"
        }
      ],
      "name": "messages",
      "outputs": [
        {
          "internalType": "string",
          "name": "_id",
          "type": "string"
        },
        {
          "internalType": "string",
          "name": "content",
          "type": "string"
        },
        {
          "internalType": "string",
          "name": "sign",
          "type": "string"
        },
        {
          "internalType": "string",
          "name": "hash",
          "type": "string"
        }
      ],
      "payable": false,
      "stateMutability": "view",
      "type": "function"
    },
    {
      "constant": true,
      "inputs": [],
      "name": "owner",
      "outputs": [
        {
          "internalType": "address",
          "name": "",
          "type": "address"
        }
      ],
      "payable": false,
      "stateMutability": "view",
      "type": "function"
    },
    {
      "constant": true,
      "inputs": [
        {
          "internalType": "string",
          "name": "",
          "type": "string"
        }
      ],
      "name": "users",
      "outputs": [
        {
          "internalType": "string",
          "name": "name",
          "type": "string"
        },
        {
          "internalType": "string",
          "name": "email",
          "type": "string"
        },
        {
          "internalType": "string",
          "name": "hash",
          "type": "string"
        }
      ],
      "payable": false,
      "stateMutability": "view",
      "type": "function"
    },
    {
      "constant": false,
      "inputs": [
        {
          "internalType": "string",
          "name": "name",
          "type": "string"
        },
        {
          "internalType": "string",
          "name": "email",
          "type": "string"
        },
        {
          "internalType": "string",
          "name": "hash",
          "type": "string"
        }
      ],
      "name": "userAppend",
      "outputs": [],
      "payable": false,
      "stateMutability": "nonpayable",
      "type": "function"
    },
    {
      "constant": false,
      "inputs": [
        {
          "internalType": "string",
          "name": "time_stamp",
          "type": "string"
        },
        {
          "internalType": "string",
          "name": "publicKey",
          "type": "string"
        },
        {
          "internalType": "uint256",
          "name": "ownerTrust",
          "type": "uint256"
        },
        {
          "internalType": "string",
          "name": "hash",
          "type": "string"
        }
      ],
      "name": "keyRingAppend",
      "outputs": [],
      "payable": false,
      "stateMutability": "nonpayable",
      "type": "function"
    },
    {
      "constant": false,
      "inputs": [
        {
          "internalType": "string",
          "name": "_id",
          "type": "string"
        },
        {
          "internalType": "string",
          "name": "content",
          "type": "string"
        },
        {
          "internalType": "string",
          "name": "sign",
          "type": "string"
        },
        {
          "internalType": "string",
          "name": "hash",
          "type": "string"
        }
      ],
      "name": "MsgAppend",
      "outputs": [],
      "payable": false,
      "stateMutability": "nonpayable",
      "type": "function"
    },
    {
      "constant": false,
      "inputs": [
        {
          "internalType": "string",
          "name": "hash",
          "type": "string"
        },
        {
          "internalType": "uint256",
          "name": "increTrust",
          "type": "uint256"
        }
      ],
      "name": "trustAdd",
      "outputs": [],
      "payable": false,
      "stateMutability": "nonpayable",
      "type": "function"
    },
    {
      "constant": false,
      "inputs": [
        {
          "internalType": "string",
          "name": "hash",
          "type": "string"
        },
        {
          "internalType": "uint256",
          "name": "subTrust",
          "type": "uint256"
        }
      ],
      "name": "trustSub",
      "outputs": [],
      "payable": false,
      "stateMutability": "nonpayable",
      "type": "function"
    }
  ],
  "bytecode": "0x6080604052600060045534801561001557600080fd5b50336000806101000a81548173ffffffffffffffffffffffffffffffffffffffff021916908373ffffffffffffffffffffffffffffffffffffffff160217905550611b31806100656000396000f3fe608060405234801561001057600080fd5b50600436106100935760003560e01c8063689e1c0311610066578063689e1c03146109065780638da5cb5b14610b125780639187bff514610b5c578063d6a69f8014610ddc578063e6b74c3d14610ea157610093565b8063073b7914146100985780632f99ebee14610281578063385c828c1461049b57806354a9490214610713575b600080fd5b61027f600480360360608110156100ae57600080fd5b81019080803590602001906401000000008111156100cb57600080fd5b8201836020820111156100dd57600080fd5b803590602001918460018302840111640100000000831117156100ff57600080fd5b91908080601f016020809104026020016040519081016040528093929190818152602001838380828437600081840152601f19601f8201169050808301925050505050505091929192908035906020019064010000000081111561016257600080fd5b82018360208201111561017457600080fd5b8035906020019184600183028401116401000000008311171561019657600080fd5b91908080601f016020809104026020016040519081016040528093929190818152602001838380828437600081840152601f19601f820116905080830192505050505050509192919290803590602001906401000000008111156101f957600080fd5b82018360208201111561020b57600080fd5b8035906020019184600183028401116401000000008311171561022d57600080fd5b91908080601f016020809104026020016040519081016040528093929190818152602001838380828437600081840152601f19601f820116905080830192505050505050509192919290505050610f66565b005b61033a6004803603602081101561029757600080fd5b81019080803590602001906401000000008111156102b457600080fd5b8201836020820111156102c657600080fd5b803590602001918460018302840111640100000000831117156102e857600080fd5b91908080601f016020809104026020016040519081016040528093929190818152602001838380828437600081840152601f19601f820116905080830192505050505050509192919290505050611049565b60405180806020018681526020018060200185815260200180602001848103845289818151815260200191508051906020019080838360005b8381101561038e578082015181840152602081019050610373565b50505050905090810190601f1680156103bb5780820380516001836020036101000a031916815260200191505b50848103835287818151815260200191508051906020019080838360005b838110156103f45780820151818401526020810190506103d9565b50505050905090810190601f1680156104215780820380516001836020036101000a031916815260200191505b50848103825285818151815260200191508051906020019080838360005b8381101561045a57808201518184015260208101905061043f565b50505050905090810190601f1680156104875780820380516001836020036101000a031916815260200191505b509850505050505050505060405180910390f35b610554600480360360208110156104b157600080fd5b81019080803590602001906401000000008111156104ce57600080fd5b8201836020820111156104e057600080fd5b8035906020019184600183028401116401000000008311171561050257600080fd5b91908080601f016020809104026020016040519081016040528093929190818152602001838380828437600081840152601f19601f82011690508083019250505050505050919291929050505061125d565b6040518080602001806020018060200180602001858103855289818151815260200191508051906020019080838360005b838110156105a0578082015181840152602081019050610585565b50505050905090810190601f1680156105cd5780820380516001836020036101000a031916815260200191505b50858103845288818151815260200191508051906020019080838360005b838110156106065780820151818401526020810190506105eb565b50505050905090810190601f1680156106335780820380516001836020036101000a031916815260200191505b50858103835287818151815260200191508051906020019080838360005b8381101561066c578082015181840152602081019050610651565b50505050905090810190601f1680156106995780820380516001836020036101000a031916815260200191505b50858103825286818151815260200191508051906020019080838360005b838110156106d25780820151818401526020810190506106b7565b50505050905090810190601f1680156106ff5780820380516001836020036101000a031916815260200191505b509850505050505050505060405180910390f35b6109046004803603608081101561072957600080fd5b810190808035906020019064010000000081111561074657600080fd5b82018360208201111561075857600080fd5b8035906020019184600183028401116401000000008311171561077a57600080fd5b91908080601f016020809104026020016040519081016040528093929190818152602001838380828437600081840152601f19601f820116905080830192505050505050509192919290803590602001906401000000008111156107dd57600080fd5b8201836020820111156107ef57600080fd5b8035906020019184600183028401116401000000008311171561081157600080fd5b91908080601f016020809104026020016040519081016040528093929190818152602001838380828437600081840152601f19601f820116905080830192505050505050509192919290803590602001909291908035906020019064010000000081111561087e57600080fd5b82018360208201111561089057600080fd5b803590602001918460018302840111640100000000831117156108b257600080fd5b91908080601f016020809104026020016040519081016040528093929190818152602001838380828437600081840152601f19601f820116905080830192505050505050509192919290505050611503565b005b6109bf6004803603602081101561091c57600080fd5b810190808035906020019064010000000081111561093957600080fd5b82018360208201111561094b57600080fd5b8035906020019184600183028401116401000000008311171561096d57600080fd5b91908080601f016020809104026020016040519081016040528093929190818152602001838380828437600081840152601f19601f82011690508083019250505050505050919291929050505061161b565b60405180806020018060200180602001848103845287818151815260200191508051906020019080838360005b83811015610a075780820151818401526020810190506109ec565b50505050905090810190601f168015610a345780820380516001836020036101000a031916815260200191505b50848103835286818151815260200191508051906020019080838360005b83811015610a6d578082015181840152602081019050610a52565b50505050905090810190601f168015610a9a5780820380516001836020036101000a031916815260200191505b50848103825285818151815260200191508051906020019080838360005b83811015610ad3578082015181840152602081019050610ab8565b50505050905090810190601f168015610b005780820380516001836020036101000a031916815260200191505b50965050505050505060405180910390f35b610b1a611823565b604051808273ffffffffffffffffffffffffffffffffffffffff1673ffffffffffffffffffffffffffffffffffffffff16815260200191505060405180910390f35b610dda60048036036080811015610b7257600080fd5b8101908080359060200190640100000000811115610b8f57600080fd5b820183602082011115610ba157600080fd5b80359060200191846001830284011164010000000083111715610bc357600080fd5b91908080601f016020809104026020016040519081016040528093929190818152602001838380828437600081840152601f19601f82011690508083019250505050505050919291929080359060200190640100000000811115610c2657600080fd5b820183602082011115610c3857600080fd5b80359060200191846001830284011164010000000083111715610c5a57600080fd5b91908080601f016020809104026020016040519081016040528093929190818152602001838380828437600081840152601f19601f82011690508083019250505050505050919291929080359060200190640100000000811115610cbd57600080fd5b820183602082011115610ccf57600080fd5b80359060200191846001830284011164010000000083111715610cf157600080fd5b91908080601f016020809104026020016040519081016040528093929190818152602001838380828437600081840152601f19601f82011690508083019250505050505050919291929080359060200190640100000000811115610d5457600080fd5b820183602082011115610d6657600080fd5b80359060200191846001830284011164010000000083111715610d8857600080fd5b91908080601f016020809104026020016040519081016040528093929190818152602001838380828437600081840152601f19601f820116905080830192505050505050509192919290505050611848565b005b610e9f60048036036040811015610df257600080fd5b8101908080359060200190640100000000811115610e0f57600080fd5b820183602082011115610e2157600080fd5b80359060200191846001830284011164010000000083111715610e4357600080fd5b91908080601f016020809104026020016040519081016040528093929190818152602001838380828437600081840152601f19601f8201169050808301925050505050505091929192908035906020019092919050505061194f565b005b610f6460048036036040811015610eb757600080fd5b8101908080359060200190640100000000811115610ed457600080fd5b820183602082011115610ee657600080fd5b80359060200191846001830284011164010000000083111715610f0857600080fd5b91908080601f016020809104026020016040519081016040528093929190818152602001838380828437600081840152601f19601f820116905080830192505050505050509192919290803590602001909291905050506119d3565b005b6040518060600160405280848152602001838152602001828152506001826040518082805190602001908083835b60208310610fb75780518252602082019150602081019050602083039250610f94565b6001836020036101000a03801982511681845116808217855250505050505090500191505090815260200160405180910390206000820151816000019080519060200190611006929190611a57565b506020820151816001019080519060200190611023929190611a57565b506040820151816002019080519060200190611040929190611a57565b50905050505050565b600281805160208101820180518482526020830160208501208183528095505050505050600091509050806000018054600181600116156101000203166002900480601f01602080910402602001604051908101604052809291908181526020018280546001816001161561010002031660029004801561110b5780601f106110e05761010080835404028352916020019161110b565b820191906000526020600020905b8154815290600101906020018083116110ee57829003601f168201915b505050505090806001015490806002018054600181600116156101000203166002900480601f0160208091040260200160405190810160405280929190818152602001828054600181600116156101000203166002900480156111af5780601f10611184576101008083540402835291602001916111af565b820191906000526020600020905b81548152906001019060200180831161119257829003601f168201915b505050505090806003015490806004018054600181600116156101000203166002900480601f0160208091040260200160405190810160405280929190818152602001828054600181600116156101000203166002900480156112535780601f1061122857610100808354040283529160200191611253565b820191906000526020600020905b81548152906001019060200180831161123657829003601f168201915b5050505050905085565b600381805160208101820180518482526020830160208501208183528095505050505050600091509050806000018054600181600116156101000203166002900480601f01602080910402602001604051908101604052809291908181526020018280546001816001161561010002031660029004801561131f5780601f106112f45761010080835404028352916020019161131f565b820191906000526020600020905b81548152906001019060200180831161130257829003601f168201915b505050505090806001018054600181600116156101000203166002900480601f0160208091040260200160405190810160405280929190818152602001828054600181600116156101000203166002900480156113bd5780601f10611392576101008083540402835291602001916113bd565b820191906000526020600020905b8154815290600101906020018083116113a057829003601f168201915b505050505090806002018054600181600116156101000203166002900480601f01602080910402602001604051908101604052809291908181526020018280546001816001161561010002031660029004801561145b5780601f106114305761010080835404028352916020019161145b565b820191906000526020600020905b81548152906001019060200180831161143e57829003601f168201915b505050505090806003018054600181600116156101000203166002900480601f0160208091040260200160405190810160405280929190818152602001828054600181600116156101000203166002900480156114f95780601f106114ce576101008083540402835291602001916114f9565b820191906000526020600020905b8154815290600101906020018083116114dc57829003601f168201915b5050505050905084565b6004600081548092919060010191905055506040518060a001604052808581526020016004548152602001848152602001838152602001828152506002826040518082805190602001908083835b602083106115745780518252602082019150602081019050602083039250611551565b6001836020036101000a038019825116818451168082178552505050505050905001915050908152602001604051809103902060008201518160000190805190602001906115c3929190611a57565b506020820151816001015560408201518160020190805190602001906115ea929190611a57565b50606082015181600301556080820151816004019080519060200190611611929190611a57565b5090505050505050565b600181805160208101820180518482526020830160208501208183528095505050505050600091509050806000018054600181600116156101000203166002900480601f0160208091040260200160405190810160405280929190818152602001828054600181600116156101000203166002900480156116dd5780601f106116b2576101008083540402835291602001916116dd565b820191906000526020600020905b8154815290600101906020018083116116c057829003601f168201915b505050505090806001018054600181600116156101000203166002900480601f01602080910402602001604051908101604052809291908181526020018280546001816001161561010002031660029004801561177b5780601f106117505761010080835404028352916020019161177b565b820191906000526020600020905b81548152906001019060200180831161175e57829003601f168201915b505050505090806002018054600181600116156101000203166002900480601f0160208091040260200160405190810160405280929190818152602001828054600181600116156101000203166002900480156118195780601f106117ee57610100808354040283529160200191611819565b820191906000526020600020905b8154815290600101906020018083116117fc57829003601f168201915b5050505050905083565b6000809054906101000a900473ffffffffffffffffffffffffffffffffffffffff1681565b6040518060800160405280858152602001848152602001838152602001828152506003856040518082805190602001908083835b6020831061189f578051825260208201915060208101905060208303925061187c565b6001836020036101000a038019825116818451168082178552505050505050905001915050908152602001604051809103902060008201518160000190805190602001906118ee929190611a57565b50602082015181600101908051906020019061190b929190611a57565b506040820151816002019080519060200190611928929190611a57565b506060820151816003019080519060200190611945929190611a57565b5090505050505050565b60006002836040518082805190602001908083835b602083106119875780518252602082019150602081019050602083039250611964565b6001836020036101000a03801982511681845116808217855250505050505090500191505090815260200160405180910390209050818160030160008282540192505081905550505050565b60006002836040518082805190602001908083835b60208310611a0b57805182526020820191506020810190506020830392506119e8565b6001836020036101000a03801982511681845116808217855250505050505090500191505090815260200160405180910390209050818160030160008282540392505081905550505050565b828054600181600116156101000203166002900490600052602060002090601f016020900481019282601f10611a9857805160ff1916838001178555611ac6565b82800160010185558215611ac6579182015b82811115611ac5578251825591602001919060010190611aaa565b5b509050611ad39190611ad7565b5090565b611af991905b80821115611af5576000816000905550600101611add565b5090565b9056fea265627a7a723158203c7b3de2fd7d1d4a67edfc9a712c5c3fc594f1285833ec4fb7d358864baf714264736f6c634300050c0032",
  "source": "pragma solidity >=0.4.0;\r\n\r\n// TODO: /\r\n\r\ncontract PGP {\r\n    address public owner;\r\n\r\n    mapping (string => User) public users;\r\n    mapping (string => PuKeyRing) public keyring;\r\n    mapping (string => Message) public messages;\r\n\r\n    uint nKeyRing = 0;\r\n\r\n    // \r\n    struct User {\r\n        string name;\r\n        string email;\r\n        string hash;\r\n    }\r\n\r\n    //  \r\n    struct PuKeyRing {\r\n        string time_stamp;\r\n        uint keyId;\r\n        string publicKey;\r\n        uint ownerTrust;\r\n        string hash;    //userId\r\n    }\r\n\r\n    // \r\n    struct Message {\r\n        string _id;\r\n        string content;\r\n        string sign;\r\n        string hash;\r\n    }\r\n\r\n    constructor() public {\r\n        owner = msg.sender;\r\n    }\r\n\r\n    function userAppend(string memory name, string memory email, string memory hash) public {\r\n        users[hash] = User(name, email, hash);\r\n    }\r\n\r\n    function keyRingAppend(string memory time_stamp, string memory publicKey, uint ownerTrust, string memory hash) public {\r\n        nKeyRing++;\r\n        keyring[hash] = PuKeyRing(time_stamp, nKeyRing, publicKey, ownerTrust, hash);\r\n    }\r\n\r\n    function MsgAppend(string memory _id, string memory content, string memory sign, string memory hash) public {\r\n        messages[_id] = Message(_id, content, sign, hash);\r\n    }\r\n\r\n    function trustAdd(string memory hash, uint increTrust) public {\r\n        PuKeyRing storage updateTrust = keyring[hash];\r\n        updateTrust.ownerTrust += increTrust;\r\n    }\r\n\r\n    function trustSub(string memory hash, uint subTrust) public {\r\n        PuKeyRing storage updateTrust = keyring[hash];\r\n        updateTrust.ownerTrust -= subTrust;\r\n    }\r\n}",
  "sourcePath": "C:/Users/User/Desktop/VSCode/BlockEmail/contracts/PGP.sol",
  "compiler": {
    "name": "solc",
    "version": "0.5.12+commit.7709ece9.Emscripten.clang"
  },
  "schemaVersion": "3.0.19",
  "updatedAt": "2020-10-13T06:26:24.486Z",
  "networkType": "ethereum",
  "devdoc": {
    "methods": {}
  },
  "userdoc": {
    "methods": {}
  }
}