{
  "contractName": "PGP",
  "abi": [
    {
      "constant": true,
      "inputs": [
        {
          "name": "",
          "type": "uint256"
        }
      ],
      "name": "messages",
      "outputs": [
        {
          "name": "content",
          "type": "string"
        },
        {
          "name": "sign",
          "type": "string"
        },
        {
          "name": "hash",
          "type": "string"
        }
      ],
      "payable": false,
      "stateMutability": "view",
      "type": "function"
    },
    {
      "constant": true,
      "inputs": [
        {
          "name": "",
          "type": "uint256"
        }
      ],
      "name": "users",
      "outputs": [
        {
          "name": "name",
          "type": "string"
        },
        {
          "name": "email",
          "type": "string"
        },
        {
          "name": "hash",
          "type": "string"
        }
      ],
      "payable": false,
      "stateMutability": "view",
      "type": "function"
    },
    {
      "constant": true,
      "inputs": [],
      "name": "owner",
      "outputs": [
        {
          "name": "",
          "type": "address"
        }
      ],
      "payable": false,
      "stateMutability": "view",
      "type": "function"
    },
    {
      "constant": true,
      "inputs": [
        {
          "name": "",
          "type": "uint256"
        }
      ],
      "name": "keyring",
      "outputs": [
        {
          "name": "timestamp",
          "type": "uint256"
        },
        {
          "name": "publicKey",
          "type": "string"
        },
        {
          "name": "ownerTrust",
          "type": "uint256"
        },
        {
          "name": "hash",
          "type": "string"
        }
      ],
      "payable": false,
      "stateMutability": "view",
      "type": "function"
    },
    {
      "inputs": [],
      "payable": false,
      "stateMutability": "nonpayable",
      "type": "constructor"
    },
    {
      "constant": false,
      "inputs": [
        {
          "name": "name",
          "type": "string"
        },
        {
          "name": "email",
          "type": "string"
        },
        {
          "name": "hash",
          "type": "string"
        }
      ],
      "name": "userAppend",
      "outputs": [
        {
          "name": "userId",
          "type": "uint256"
        }
      ],
      "payable": false,
      "stateMutability": "nonpayable",
      "type": "function"
    },
    {
      "constant": false,
      "inputs": [
        {
          "name": "timestamp",
          "type": "uint256"
        },
        {
          "name": "publicKey",
          "type": "string"
        },
        {
          "name": "ownerTrust",
          "type": "uint256"
        },
        {
          "name": "hash",
          "type": "string"
        }
      ],
      "name": "keyRingAppend",
      "outputs": [
        {
          "name": "keyId",
          "type": "uint256"
        }
      ],
      "payable": false,
      "stateMutability": "nonpayable",
      "type": "function"
    },
    {
      "constant": false,
      "inputs": [
        {
          "name": "content",
          "type": "string"
        },
        {
          "name": "sign",
          "type": "string"
        },
        {
          "name": "hash",
          "type": "string"
        }
      ],
      "name": "MsgAppend",
      "outputs": [
        {
          "name": "msgId",
          "type": "uint256"
        }
      ],
      "payable": false,
      "stateMutability": "nonpayable",
      "type": "function"
    }
  ],
  "bytecode": "0x608060405260006004556000600555600060065534801561001f57600080fd5b50336000806101000a81548173ffffffffffffffffffffffffffffffffffffffff021916908373ffffffffffffffffffffffffffffffffffffffff1602179055506112838061006f6000396000f3fe608060405234801561001057600080fd5b506004361061007d5760003560e01c8063651fba061161005b578063651fba061461057d5780638da5cb5b1461077a578063e5830273146107c4578063ef446bf5146108e55761007d565b8063073b7914146100825780630d80fefd1461027f578063365b98b2146103fe575b600080fd5b6102696004803603606081101561009857600080fd5b81019080803590602001906401000000008111156100b557600080fd5b8201836020820111156100c757600080fd5b803590602001918460018302840111640100000000831117156100e957600080fd5b91908080601f016020809104026020016040519081016040528093929190818152602001838380828437600081840152601f19601f8201169050808301925050505050505091929192908035906020019064010000000081111561014c57600080fd5b82018360208201111561015e57600080fd5b8035906020019184600183028401116401000000008311171561018057600080fd5b91908080601f016020809104026020016040519081016040528093929190818152602001838380828437600081840152601f19601f820116905080830192505050505050509192919290803590602001906401000000008111156101e357600080fd5b8201836020820111156101f557600080fd5b8035906020019184600183028401116401000000008311171561021757600080fd5b91908080601f016020809104026020016040519081016040528093929190818152602001838380828437600081840152601f19601f820116905080830192505050505050509192919290505050610a5f565b6040518082815260200191505060405180910390f35b6102ab6004803603602081101561029557600080fd5b8101908080359060200190929190505050610b03565b60405180806020018060200180602001848103845287818151815260200191508051906020019080838360005b838110156102f35780820151818401526020810190506102d8565b50505050905090810190601f1680156103205780820380516001836020036101000a031916815260200191505b50848103835286818151815260200191508051906020019080838360005b8381101561035957808201518184015260208101905061033e565b50505050905090810190601f1680156103865780820380516001836020036101000a031916815260200191505b50848103825285818151815260200191508051906020019080838360005b838110156103bf5780820151818401526020810190506103a4565b50505050905090810190601f1680156103ec5780820380516001836020036101000a031916815260200191505b50965050505050505060405180910390f35b61042a6004803603602081101561041457600080fd5b8101908080359060200190929190505050610cf5565b60405180806020018060200180602001848103845287818151815260200191508051906020019080838360005b83811015610472578082015181840152602081019050610457565b50505050905090810190601f16801561049f5780820380516001836020036101000a031916815260200191505b50848103835286818151815260200191508051906020019080838360005b838110156104d85780820151818401526020810190506104bd565b50505050905090810190601f1680156105055780820380516001836020036101000a031916815260200191505b50848103825285818151815260200191508051906020019080838360005b8381101561053e578082015181840152602081019050610523565b50505050905090810190601f16801561056b5780820380516001836020036101000a031916815260200191505b50965050505050505060405180910390f35b6107646004803603606081101561059357600080fd5b81019080803590602001906401000000008111156105b057600080fd5b8201836020820111156105c257600080fd5b803590602001918460018302840111640100000000831117156105e457600080fd5b91908080601f016020809104026020016040519081016040528093929190818152602001838380828437600081840152601f19601f8201169050808301925050505050505091929192908035906020019064010000000081111561064757600080fd5b82018360208201111561065957600080fd5b8035906020019184600183028401116401000000008311171561067b57600080fd5b91908080601f016020809104026020016040519081016040528093929190818152602001838380828437600081840152601f19601f820116905080830192505050505050509192919290803590602001906401000000008111156106de57600080fd5b8201836020820111156106f057600080fd5b8035906020019184600183028401116401000000008311171561071257600080fd5b91908080601f016020809104026020016040519081016040528093929190818152602001838380828437600081840152601f19601f820116905080830192505050505050509192919290505050610ee7565b6040518082815260200191505060405180910390f35b610782610f8b565b604051808273ffffffffffffffffffffffffffffffffffffffff1673ffffffffffffffffffffffffffffffffffffffff16815260200191505060405180910390f35b6107f0600480360360208110156107da57600080fd5b8101908080359060200190929190505050610fb0565b604051808581526020018060200184815260200180602001838103835286818151815260200191508051906020019080838360005b83811015610840578082015181840152602081019050610825565b50505050905090810190601f16801561086d5780820380516001836020036101000a031916815260200191505b50838103825284818151815260200191508051906020019080838360005b838110156108a657808201518184015260208101905061088b565b50505050905090810190601f1680156108d35780820380516001836020036101000a031916815260200191505b50965050505050505060405180910390f35b610a49600480360360808110156108fb57600080fd5b81019080803590602001909291908035906020019064010000000081111561092257600080fd5b82018360208201111561093457600080fd5b8035906020019184600183028401116401000000008311171561095657600080fd5b91908080601f016020809104026020016040519081016040528093929190818152602001838380828437600081840152601f19601f82011690508083019250505050505050919291929080359060200190929190803590602001906401000000008111156109c357600080fd5b8201836020820111156109d557600080fd5b803590602001918460018302840111640100000000831117156109f757600080fd5b91908080601f016020809104026020016040519081016040528093929190818152602001838380828437600081840152601f19601f820116905080830192505050505050509192919290505050611110565b6040518082815260200191505060405180910390f35b600060046000815480929190600101919050559050604051806060016040528085815260200184815260200183815250600160008381526020019081526020016000206000820151816000019080519060200190610abe9291906111b2565b506020820151816001019080519060200190610adb9291906111b2565b506040820151816002019080519060200190610af89291906111b2565b509050509392505050565b6003602052806000526040600020600091509050806000018054600181600116156101000203166002900480601f016020809104026020016040519081016040528092919081815260200182805460018160011615610100020316600290048015610baf5780601f10610b8457610100808354040283529160200191610baf565b820191906000526020600020905b815481529060010190602001808311610b9257829003601f168201915b505050505090806001018054600181600116156101000203166002900480601f016020809104026020016040519081016040528092919081815260200182805460018160011615610100020316600290048015610c4d5780601f10610c2257610100808354040283529160200191610c4d565b820191906000526020600020905b815481529060010190602001808311610c3057829003601f168201915b505050505090806002018054600181600116156101000203166002900480601f016020809104026020016040519081016040528092919081815260200182805460018160011615610100020316600290048015610ceb5780601f10610cc057610100808354040283529160200191610ceb565b820191906000526020600020905b815481529060010190602001808311610cce57829003601f168201915b5050505050905083565b6001602052806000526040600020600091509050806000018054600181600116156101000203166002900480601f016020809104026020016040519081016040528092919081815260200182805460018160011615610100020316600290048015610da15780601f10610d7657610100808354040283529160200191610da1565b820191906000526020600020905b815481529060010190602001808311610d8457829003601f168201915b505050505090806001018054600181600116156101000203166002900480601f016020809104026020016040519081016040528092919081815260200182805460018160011615610100020316600290048015610e3f5780601f10610e1457610100808354040283529160200191610e3f565b820191906000526020600020905b815481529060010190602001808311610e2257829003601f168201915b505050505090806002018054600181600116156101000203166002900480601f016020809104026020016040519081016040528092919081815260200182805460018160011615610100020316600290048015610edd5780601f10610eb257610100808354040283529160200191610edd565b820191906000526020600020905b815481529060010190602001808311610ec057829003601f168201915b5050505050905083565b600060066000815480929190600101919050559050604051806060016040528085815260200184815260200183815250600360008381526020019081526020016000206000820151816000019080519060200190610f469291906111b2565b506020820151816001019080519060200190610f639291906111b2565b506040820151816002019080519060200190610f809291906111b2565b509050509392505050565b6000809054906101000a900473ffffffffffffffffffffffffffffffffffffffff1681565b6002602052806000526040600020600091509050806000015490806001018054600181600116156101000203166002900480601f0160208091040260200160405190810160405280929190818152602001828054600181600116156101000203166002900480156110625780601f1061103757610100808354040283529160200191611062565b820191906000526020600020905b81548152906001019060200180831161104557829003601f168201915b505050505090806002015490806003018054600181600116156101000203166002900480601f0160208091040260200160405190810160405280929190818152602001828054600181600116156101000203166002900480156111065780601f106110db57610100808354040283529160200191611106565b820191906000526020600020905b8154815290600101906020018083116110e957829003601f168201915b5050505050905084565b6000600560008154809291906001019190505590506040518060800160405280868152602001858152602001848152602001838152506002600083815260200190815260200160002060008201518160000155602082015181600101908051906020019061117f9291906111b2565b506040820151816002015560608201518160030190805190602001906111a69291906111b2565b50905050949350505050565b828054600181600116156101000203166002900490600052602060002090601f016020900481019282601f106111f357805160ff1916838001178555611221565b82800160010185558215611221579182015b82811115611220578251825591602001919060010190611205565b5b50905061122e9190611232565b5090565b61125491905b80821115611250576000816000905550600101611238565b5090565b9056fea165627a7a723058204d009e57cfa7f2a69935fd3f3dc117db521de909fad6509bfbde7f28716017a00029",
  "source": "pragma solidity >=0.4.0;\r\n\r\n// TODO: 암호화/복호화\r\n\r\ncontract PGP {\r\n    \r\n    address public owner;\r\n\r\n    mapping (uint => User) public users;\r\n    mapping (uint => PuKeyRing) public keyring;\r\n    mapping (uint => Message) public messages;\r\n\r\n    uint nUser = 0;\r\n    uint nKeyRing = 0;\r\n    uint nMessage = 0;\r\n\r\n    // 사용자\r\n    struct User {\r\n        string name;\r\n        string email;     \r\n        string hash;\r\n    }\r\n\r\n    // 공개키 키링\r\n    struct PuKeyRing {\r\n        uint timestamp;\r\n        //string keyId; 매핑 아이디로 사용\r\n        string publicKey;\r\n        uint ownerTrust;\r\n        string hash;    //userId\r\n    }\r\n\r\n    // 메시지\r\n    struct Message {\r\n        string content;\r\n        string sign;\r\n        string hash;\r\n    }\r\n\r\n    constructor() public {\r\n        owner = msg.sender;\r\n    }\r\n\r\n    function userAppend(string memory name, string memory email, string memory hash) public returns (uint userId) {\r\n        userId = nUser++;\r\n        users[userId] = User(name, email, hash);\r\n    }\r\n\r\n    function keyRingAppend(uint timestamp, string memory publicKey, uint ownerTrust, string memory hash) public returns (uint keyId) {\r\n        keyId = nKeyRing++;\r\n        keyring[keyId] = PuKeyRing(timestamp, publicKey, ownerTrust, hash);\r\n    }\r\n\r\n    function MsgAppend(string memory content, string memory sign, string memory hash) public returns (uint msgId) {\r\n        msgId = nMessage++;\r\n        messages[msgId] = Message(content, sign, hash);\r\n    }\r\n}",
  "sourcePath": "C:/Users/kjs50/Desktop/VSCode/SmartPGP/contracts/PGP.sol",
  "compiler": {
    "name": "solc",
    "version": "0.5.8+commit.23d335f2.Emscripten.clang"
  },
  "schemaVersion": "3.0.13",
  "updatedAt": "2019-12-03T02:16:44.037Z",
  "devdoc": {
    "methods": {}
  },
  "userdoc": {
    "methods": {}
  }
}